{
  "_format": "hh-sol-artifact-1",
  "contractName": "OrganizationContract",
  "sourceName": "contracts/OrganisationContract.sol",
  "abi": [
    {
      "inputs": [],
      "stateMutability": "nonpayable",
      "type": "constructor"
    },
    {
      "anonymous": false,
      "inputs": [
        {
          "indexed": true,
          "internalType": "address",
          "name": "admin",
          "type": "address"
        }
      ],
      "name": "AdminAdded",
      "type": "event"
    },
    {
      "anonymous": false,
      "inputs": [
        {
          "indexed": true,
          "internalType": "address",
          "name": "admin",
          "type": "address"
        }
      ],
      "name": "AdminRemoved",
      "type": "event"
    },
    {
      "anonymous": false,
      "inputs": [
        {
          "indexed": true,
          "internalType": "address",
          "name": "organization",
          "type": "address"
        },
        {
          "indexed": false,
          "internalType": "string",
          "name": "name",
          "type": "string"
        }
      ],
      "name": "OrganizationRegistered",
      "type": "event"
    },
    {
      "anonymous": false,
      "inputs": [
        {
          "indexed": true,
          "internalType": "address",
          "name": "stakeholder",
          "type": "address"
        },
        {
          "indexed": false,
          "internalType": "uint256",
          "name": "vestingAmount",
          "type": "uint256"
        },
        {
          "indexed": false,
          "internalType": "uint256",
          "name": "vestingReleaseTime",
          "type": "uint256"
        },
        {
          "indexed": false,
          "internalType": "string",
          "name": "stakeholderType",
          "type": "string"
        }
      ],
      "name": "StakeholderAdded",
      "type": "event"
    },
    {
      "anonymous": false,
      "inputs": [
        {
          "indexed": false,
          "internalType": "address",
          "name": "tokenAddress",
          "type": "address"
        },
        {
          "indexed": false,
          "internalType": "string",
          "name": "name",
          "type": "string"
        },
        {
          "indexed": false,
          "internalType": "string",
          "name": "symbol",
          "type": "string"
        },
        {
          "indexed": false,
          "internalType": "uint256",
          "name": "initialSupply",
          "type": "uint256"
        }
      ],
      "name": "TokenCreated",
      "type": "event"
    },
    {
      "anonymous": false,
      "inputs": [
        {
          "indexed": true,
          "internalType": "address",
          "name": "claimant",
          "type": "address"
        },
        {
          "indexed": false,
          "internalType": "uint256",
          "name": "amount",
          "type": "uint256"
        }
      ],
      "name": "TokensClaimed",
      "type": "event"
    },
    {
      "anonymous": false,
      "inputs": [
        {
          "indexed": true,
          "internalType": "address",
          "name": "user",
          "type": "address"
        },
        {
          "indexed": false,
          "internalType": "bool",
          "name": "status",
          "type": "bool"
        }
      ],
      "name": "WhitelistUpdated",
      "type": "event"
    },
    {
      "inputs": [
        {
          "internalType": "address",
          "name": "newAdmin",
          "type": "address"
        }
      ],
      "name": "addAdmin",
      "outputs": [],
      "stateMutability": "nonpayable",
      "type": "function"
    },
    {
      "inputs": [
        {
          "internalType": "address",
          "name": "stakeholder",
          "type": "address"
        },
        {
          "internalType": "uint256",
          "name": "vestingAmount",
          "type": "uint256"
        },
        {
          "internalType": "uint256",
          "name": "vestingReleaseTime",
          "type": "uint256"
        },
        {
          "internalType": "string",
          "name": "stakeholderType",
          "type": "string"
        }
      ],
      "name": "addStakeholder",
      "outputs": [],
      "stateMutability": "nonpayable",
      "type": "function"
    },
    {
      "inputs": [
        {
          "internalType": "address",
          "name": "user",
          "type": "address"
        }
      ],
      "name": "addToWhitelist",
      "outputs": [],
      "stateMutability": "nonpayable",
      "type": "function"
    },
    {
      "inputs": [
        {
          "internalType": "address",
          "name": "",
          "type": "address"
        }
      ],
      "name": "admins",
      "outputs": [
        {
          "internalType": "bool",
          "name": "",
          "type": "bool"
        }
      ],
      "stateMutability": "view",
      "type": "function"
    },
    {
      "inputs": [],
      "name": "claimTokens",
      "outputs": [],
      "stateMutability": "nonpayable",
      "type": "function"
    },
    {
      "inputs": [
        {
          "internalType": "string",
          "name": "name",
          "type": "string"
        },
        {
          "internalType": "string",
          "name": "symbol",
          "type": "string"
        },
        {
          "internalType": "uint256",
          "name": "initialSupply",
          "type": "uint256"
        }
      ],
      "name": "createOrganizationToken",
      "outputs": [],
      "stateMutability": "nonpayable",
      "type": "function"
    },
    {
      "inputs": [
        {
          "internalType": "address",
          "name": "organization",
          "type": "address"
        }
      ],
      "name": "getOrganizationName",
      "outputs": [
        {
          "internalType": "string",
          "name": "",
          "type": "string"
        }
      ],
      "stateMutability": "view",
      "type": "function"
    },
    {
      "inputs": [
        {
          "internalType": "address",
          "name": "organization",
          "type": "address"
        }
      ],
      "name": "getOrganizationTokenDetails",
      "outputs": [
        {
          "internalType": "address",
          "name": "",
          "type": "address"
        },
        {
          "internalType": "string",
          "name": "",
          "type": "string"
        }
      ],
      "stateMutability": "view",
      "type": "function"
    },
    {
      "inputs": [
        {
          "internalType": "address",
          "name": "stakeholder",
          "type": "address"
        }
      ],
      "name": "getStakeholderDetails",
      "outputs": [
        {
          "internalType": "uint256",
          "name": "vestingAmount",
          "type": "uint256"
        },
        {
          "internalType": "uint256",
          "name": "vestingReleaseTime",
          "type": "uint256"
        },
        {
          "internalType": "string",
          "name": "stakeholderType",
          "type": "string"
        }
      ],
      "stateMutability": "view",
      "type": "function"
    },
    {
      "inputs": [
        {
          "internalType": "address",
          "name": "",
          "type": "address"
        }
      ],
      "name": "organizationNames",
      "outputs": [
        {
          "internalType": "string",
          "name": "",
          "type": "string"
        }
      ],
      "stateMutability": "view",
      "type": "function"
    },
    {
      "inputs": [
        {
          "internalType": "address",
          "name": "",
          "type": "address"
        }
      ],
      "name": "organizationToToken",
      "outputs": [
        {
          "internalType": "address",
          "name": "",
          "type": "address"
        }
      ],
      "stateMutability": "view",
      "type": "function"
    },
    {
      "inputs": [],
      "name": "owner",
      "outputs": [
        {
          "internalType": "address",
          "name": "",
          "type": "address"
        }
      ],
      "stateMutability": "view",
      "type": "function"
    },
    {
      "inputs": [
        {
          "internalType": "address",
          "name": "organizationAddress",
          "type": "address"
        },
        {
          "internalType": "string",
          "name": "_name",
          "type": "string"
        }
      ],
      "name": "registerOrganization",
      "outputs": [],
      "stateMutability": "nonpayable",
      "type": "function"
    },
    {
      "inputs": [
        {
          "internalType": "address",
          "name": "",
          "type": "address"
        }
      ],
      "name": "registeredOrganizations",
      "outputs": [
        {
          "internalType": "bool",
          "name": "",
          "type": "bool"
        }
      ],
      "stateMutability": "view",
      "type": "function"
    },
    {
      "inputs": [
        {
          "internalType": "address",
          "name": "adminToRemove",
          "type": "address"
        }
      ],
      "name": "removeAdmin",
      "outputs": [],
      "stateMutability": "nonpayable",
      "type": "function"
    },
    {
      "inputs": [
        {
          "internalType": "address",
          "name": "user",
          "type": "address"
        }
      ],
      "name": "removeFromWhitelist",
      "outputs": [],
      "stateMutability": "nonpayable",
      "type": "function"
    },
    {
      "inputs": [
        {
          "internalType": "address",
          "name": "",
          "type": "address"
        }
      ],
      "name": "stakeholders",
      "outputs": [
        {
          "internalType": "uint256",
          "name": "vestingAmount",
          "type": "uint256"
        },
        {
          "internalType": "uint256",
          "name": "vestingReleaseTime",
          "type": "uint256"
        },
        {
          "internalType": "string",
          "name": "stakeholderType",
          "type": "string"
        }
      ],
      "stateMutability": "view",
      "type": "function"
    },
    {
      "inputs": [
        {
          "internalType": "address",
          "name": "",
          "type": "address"
        }
      ],
      "name": "tokenCreated",
      "outputs": [
        {
          "internalType": "bool",
          "name": "",
          "type": "bool"
        }
      ],
      "stateMutability": "view",
      "type": "function"
    },
    {
      "inputs": [
        {
          "internalType": "address",
          "name": "",
          "type": "address"
        }
      ],
      "name": "whitelist",
      "outputs": [
        {
          "internalType": "bool",
          "name": "",
          "type": "bool"
        }
      ],
      "stateMutability": "view",
      "type": "function"
    }
  ],
  "bytecode": "0x608060405234801561001057600080fd5b50336000806101000a81548173ffffffffffffffffffffffffffffffffffffffff021916908373ffffffffffffffffffffffffffffffffffffffff16021790555060018060003373ffffffffffffffffffffffffffffffffffffffff1673ffffffffffffffffffffffffffffffffffffffff16815260200190815260200160002060006101000a81548160ff021916908315150217905550614cc0806100b76000396000f3fe60806040523480156200001157600080fd5b50600436106200013c5760003560e01c80639b19251a11620000bd578063d3d2a475116200007b578063d3d2a475146200038e578063e43252d714620003c4578063e8f2f7c014620003e4578063edb2c200146200041a578063fa4cf2db1462000450576200013c565b80639b19251a14620002a8578063ae51cef914620002de578063afd159801462000316578063c07cfca91462000336578063c9128b09146200036e576200013c565b80634803d35a116200010b5780634803d35a146200020457806348c54b9d146200023a5780637048027514620002465780638ab1d68114620002665780638da5cb5b1462000286576200013c565b80630930234014620001415780631785f53c1462000178578063407742d81462000198578063429b62e514620001ce575b600080fd5b6200015f600480360381019062000159919062001bfb565b62000470565b6040516200016f92919062001cd8565b60405180910390f35b62000196600480360381019062000190919062001bfb565b620005d8565b005b620001b66004803603810190620001b0919062001bfb565b62000798565b604051620001c5919062001d0c565b60405180910390f35b620001ec6004803603810190620001e6919062001bfb565b620007cb565b604051620001fb919062001d46565b60405180910390f35b6200022260048036038101906200021c919062001bfb565b620007eb565b60405162000231919062001d46565b60405180910390f35b620002446200080b565b005b6200026460048036038101906200025e919062001bfb565b62000bc8565b005b6200028460048036038101906200027e919062001bfb565b62000cf6565b005b6200029062000edd565b6040516200029f919062001d0c565b60405180910390f35b620002c66004803603810190620002c0919062001bfb565b62000f01565b604051620002d5919062001d46565b60405180910390f35b620002fc6004803603810190620002f6919062001bfb565b62000f21565b6040516200030d9392919062001d7e565b60405180910390f35b6200033460048036038101906200032e919062001f44565b6200103f565b005b6200035460048036038101906200034e919062001bfb565b62001366565b604051620003659392919062001d7e565b60405180910390f35b6200038c600480360381019062000386919062001fde565b62001420565b005b620003ac6004803603810190620003a6919062001bfb565b62001562565b604051620003bb919062001d46565b60405180910390f35b620003e26004803603810190620003dc919062001bfb565b62001582565b005b620004026004803603810190620003fc919062001bfb565b62001769565b60405162000411919062002044565b60405180910390f35b62000438600480360381019062000432919062001bfb565b62001842565b60405162000447919062002044565b60405180910390f35b6200046e600480360381019062000468919062002068565b620018ea565b005b600060606000600760008573ffffffffffffffffffffffffffffffffffffffff1673ffffffffffffffffffffffffffffffffffffffff16815260200190815260200160002060009054906101000a900473ffffffffffffffffffffffffffffffffffffffff169050600073ffffffffffffffffffffffffffffffffffffffff168173ffffffffffffffffffffffffffffffffffffffff16036200054a576040517f08c379a000000000000000000000000000000000000000000000000000000000815260040162000541906200216f565b60405180910390fd5b600081905060008173ffffffffffffffffffffffffffffffffffffffff1663b6d7855a6040518163ffffffff1660e01b8152600401600060405180830381865afa1580156200059d573d6000803e3d6000fd5b505050506040513d6000823e3d601f19601f82011682018060405250810190620005c891906200220f565b9050828194509450505050915091565b60008054906101000a900473ffffffffffffffffffffffffffffffffffffffff1673ffffffffffffffffffffffffffffffffffffffff163373ffffffffffffffffffffffffffffffffffffffff161462000669576040517f08c379a00000000000000000000000000000000000000000000000000000000081526004016200066090620022d6565b60405180910390fd5b60008054906101000a900473ffffffffffffffffffffffffffffffffffffffff1673ffffffffffffffffffffffffffffffffffffffff168173ffffffffffffffffffffffffffffffffffffffff1603620006fa576040517f08c379a0000000000000000000000000000000000000000000000000000000008152600401620006f19062002348565b60405180910390fd5b6000600160008373ffffffffffffffffffffffffffffffffffffffff1673ffffffffffffffffffffffffffffffffffffffff16815260200190815260200160002060006101000a81548160ff0219169083151502179055508073ffffffffffffffffffffffffffffffffffffffff167fa3b62bc36326052d97ea62d63c3d60308ed4c3ea8ac079dd8499f1e9c4f80c0f60405160405180910390a250565b60076020528060005260406000206000915054906101000a900473ffffffffffffffffffffffffffffffffffffffff1681565b60016020528060005260406000206000915054906101000a900460ff1681565b60046020528060005260406000206000915054906101000a900460ff1681565b600260003373ffffffffffffffffffffffffffffffffffffffff1673ffffffffffffffffffffffffffffffffffffffff16815260200190815260200160002060009054906101000a900460ff1680620008ad5750600360003373ffffffffffffffffffffffffffffffffffffffff1673ffffffffffffffffffffffffffffffffffffffff16815260200190815260200160002060009054906101000a900460ff165b620008ef576040517f08c379a0000000000000000000000000000000000000000000000000000000008152600401620008e690620023e0565b60405180910390fd5b6000600560003373ffffffffffffffffffffffffffffffffffffffff1673ffffffffffffffffffffffffffffffffffffffff168152602001908152602001600020600001541162000977576040517f08c379a00000000000000000000000000000000000000000000000000000000081526004016200096e9062002452565b60405180910390fd5b6000600560003373ffffffffffffffffffffffffffffffffffffffff1673ffffffffffffffffffffffffffffffffffffffff1681526020019081526020016000209050806001015442101562000a04576040517f08c379a0000000000000000000000000000000000000000000000000000000008152600401620009fb90620024c4565b60405180910390fd5b600062000a1a8260010154836000015462001b08565b90506000600760003373ffffffffffffffffffffffffffffffffffffffff1673ffffffffffffffffffffffffffffffffffffffff16815260200190815260200160002060009054906101000a900473ffffffffffffffffffffffffffffffffffffffff169050600073ffffffffffffffffffffffffffffffffffffffff168173ffffffffffffffffffffffffffffffffffffffff160362000af2576040517f08c379a000000000000000000000000000000000000000000000000000000000815260040162000ae99062002536565b60405180910390fd5b60008190508073ffffffffffffffffffffffffffffffffffffffff166340c10f1933856040518363ffffffff1660e01b815260040162000b3492919062002558565b600060405180830381600087803b15801562000b4f57600080fd5b505af115801562000b64573d6000803e3d6000fd5b505050503373ffffffffffffffffffffffffffffffffffffffff167f896e034966eaaf1adc54acc0f257056febbd300c9e47182cf761982cf1f5e4308460405162000bb0919062002585565b60405180910390a26000846000018190555050505050565b60008054906101000a900473ffffffffffffffffffffffffffffffffffffffff1673ffffffffffffffffffffffffffffffffffffffff163373ffffffffffffffffffffffffffffffffffffffff161462000c59576040517f08c379a000000000000000000000000000000000000000000000000000000000815260040162000c5090620022d6565b60405180910390fd5b60018060008373ffffffffffffffffffffffffffffffffffffffff1673ffffffffffffffffffffffffffffffffffffffff16815260200190815260200160002060006101000a81548160ff0219169083151502179055508073ffffffffffffffffffffffffffffffffffffffff167f44d6d25963f097ad14f29f06854a01f575648a1ef82f30e562ccd3889717e33960405160405180910390a250565b600260003373ffffffffffffffffffffffffffffffffffffffff1673ffffffffffffffffffffffffffffffffffffffff16815260200190815260200160002060009054906101000a900460ff168062000d985750600160003373ffffffffffffffffffffffffffffffffffffffff1673ffffffffffffffffffffffffffffffffffffffff16815260200190815260200160002060009054906101000a900460ff165b8062000def575060008054906101000a900473ffffffffffffffffffffffffffffffffffffffff1673ffffffffffffffffffffffffffffffffffffffff163373ffffffffffffffffffffffffffffffffffffffff16145b62000e31576040517f08c379a000000000000000000000000000000000000000000000000000000000815260040162000e2890620025f2565b60405180910390fd5b6000600360008373ffffffffffffffffffffffffffffffffffffffff1673ffffffffffffffffffffffffffffffffffffffff16815260200190815260200160002060006101000a81548160ff0219169083151502179055508073ffffffffffffffffffffffffffffffffffffffff167ff93f9a76c1bf3444d22400a00cb9fe990e6abe9dbb333fda48859cfee864543d600060405162000ed2919062001d46565b60405180910390a250565b60008054906101000a900473ffffffffffffffffffffffffffffffffffffffff1681565b60036020528060005260406000206000915054906101000a900460ff1681565b60008060606000600560008673ffffffffffffffffffffffffffffffffffffffff1673ffffffffffffffffffffffffffffffffffffffff168152602001908152602001600020604051806060016040529081600082015481526020016001820154815260200160028201805462000f989062002643565b80601f016020809104026020016040519081016040528092919081815260200182805462000fc69062002643565b8015620010175780601f1062000feb5761010080835404028352916020019162001017565b820191906000526020600020905b81548152906001019060200180831162000ff957829003601f168201915b5050505050815250509050806000015181602001518260400151935093509350509193909250565b600260003373ffffffffffffffffffffffffffffffffffffffff1673ffffffffffffffffffffffffffffffffffffffff16815260200190815260200160002060009054906101000a900460ff1680620010e15750600160003373ffffffffffffffffffffffffffffffffffffffff1673ffffffffffffffffffffffffffffffffffffffff16815260200190815260200160002060009054906101000a900460ff165b8062001138575060008054906101000a900473ffffffffffffffffffffffffffffffffffffffff1673ffffffffffffffffffffffffffffffffffffffff163373ffffffffffffffffffffffffffffffffffffffff16145b6200117a576040517f08c379a00000000000000000000000000000000000000000000000000000000081526004016200117190620025f2565b60405180910390fd5b600460003373ffffffffffffffffffffffffffffffffffffffff1673ffffffffffffffffffffffffffffffffffffffff16815260200190815260200160002060009054906101000a900460ff16156200120a576040517f08c379a00000000000000000000000000000000000000000000000000000000081526004016200120190620026ee565b60405180910390fd5b60008383836040516200121d9062001b74565b6200122b9392919062002710565b604051809103906000f08015801562001248573d6000803e3d6000fd5b5090506001600460003373ffffffffffffffffffffffffffffffffffffffff1673ffffffffffffffffffffffffffffffffffffffff16815260200190815260200160002060006101000a81548160ff02191690831515021790555080600760003373ffffffffffffffffffffffffffffffffffffffff1673ffffffffffffffffffffffffffffffffffffffff16815260200190815260200160002060006101000a81548173ffffffffffffffffffffffffffffffffffffffff021916908373ffffffffffffffffffffffffffffffffffffffff1602179055507f75d1eb2d61d7e210835bc16e78ac4d0e4f905c108a81852a6b68c4d46b4f40f3818585856040516200135894939291906200275b565b60405180910390a150505050565b6005602052806000526040600020600091509050806000015490806001015490806002018054620013979062002643565b80601f0160208091040260200160405190810160405280929190818152602001828054620013c59062002643565b8015620014165780601f10620013ea5761010080835404028352916020019162001416565b820191906000526020600020905b815481529060010190602001808311620013f857829003601f168201915b5050505050905083565b600081511162001467576040517f08c379a00000000000000000000000000000000000000000000000000000000081526004016200145e9062002806565b60405180910390fd5b80600660008473ffffffffffffffffffffffffffffffffffffffff1673ffffffffffffffffffffffffffffffffffffffff1681526020019081526020016000209081620014b59190620029fa565b506001600260008473ffffffffffffffffffffffffffffffffffffffff1673ffffffffffffffffffffffffffffffffffffffff16815260200190815260200160002060006101000a81548160ff0219169083151502179055508173ffffffffffffffffffffffffffffffffffffffff167f783e607e94efcb9adce3489c806008ddc378d784ae22a1f801458720054325a28260405162001556919062002044565b60405180910390a25050565b60026020528060005260406000206000915054906101000a900460ff1681565b600260003373ffffffffffffffffffffffffffffffffffffffff1673ffffffffffffffffffffffffffffffffffffffff16815260200190815260200160002060009054906101000a900460ff1680620016245750600160003373ffffffffffffffffffffffffffffffffffffffff1673ffffffffffffffffffffffffffffffffffffffff16815260200190815260200160002060009054906101000a900460ff165b806200167b575060008054906101000a900473ffffffffffffffffffffffffffffffffffffffff1673ffffffffffffffffffffffffffffffffffffffff163373ffffffffffffffffffffffffffffffffffffffff16145b620016bd576040517f08c379a0000000000000000000000000000000000000000000000000000000008152600401620016b490620025f2565b60405180910390fd5b6001600360008373ffffffffffffffffffffffffffffffffffffffff1673ffffffffffffffffffffffffffffffffffffffff16815260200190815260200160002060006101000a81548160ff0219169083151502179055508073ffffffffffffffffffffffffffffffffffffffff167ff93f9a76c1bf3444d22400a00cb9fe990e6abe9dbb333fda48859cfee864543d60016040516200175e919062001d46565b60405180910390a250565b6060600660008373ffffffffffffffffffffffffffffffffffffffff1673ffffffffffffffffffffffffffffffffffffffff1681526020019081526020016000208054620017b79062002643565b80601f0160208091040260200160405190810160405280929190818152602001828054620017e59062002643565b8015620018365780601f106200180a5761010080835404028352916020019162001836565b820191906000526020600020905b8154815290600101906020018083116200181857829003601f168201915b50505050509050919050565b60066020528060005260406000206000915090508054620018639062002643565b80601f0160208091040260200160405190810160405280929190818152602001828054620018919062002643565b8015620018e25780601f10620018b657610100808354040283529160200191620018e2565b820191906000526020600020905b815481529060010190602001808311620018c457829003601f168201915b505050505081565b600260003373ffffffffffffffffffffffffffffffffffffffff1673ffffffffffffffffffffffffffffffffffffffff16815260200190815260200160002060009054906101000a900460ff16806200198c5750600160003373ffffffffffffffffffffffffffffffffffffffff1673ffffffffffffffffffffffffffffffffffffffff16815260200190815260200160002060009054906101000a900460ff165b80620019e3575060008054906101000a900473ffffffffffffffffffffffffffffffffffffffff1673ffffffffffffffffffffffffffffffffffffffff163373ffffffffffffffffffffffffffffffffffffffff16145b62001a25576040517f08c379a000000000000000000000000000000000000000000000000000000000815260040162001a1c90620025f2565b60405180910390fd5b604051806060016040528084815260200183815260200182815250600560008673ffffffffffffffffffffffffffffffffffffffff1673ffffffffffffffffffffffffffffffffffffffff1681526020019081526020016000206000820151816000015560208201518160010155604082015181600201908162001aaa9190620029fa565b509050508373ffffffffffffffffffffffffffffffffffffffff167f043d73e9f20908ba64345307131387d8dab0cbd8e4e0858e0eab358ee76e7d7484848460405162001afa9392919062001d7e565b60405180910390a250505050565b600082421162001b1c576000905062001b6e565b6000603c844262001b2e919062002b10565b62001b3a919062002b7a565b90506000600190506000818362001b52919062002bb2565b90506000858262001b64919062002bfd565b9050809450505050505b92915050565b6120528062002c3983390190565b6000604051905090565b600080fd5b600080fd5b600073ffffffffffffffffffffffffffffffffffffffff82169050919050565b600062001bc38262001b96565b9050919050565b62001bd58162001bb6565b811462001be157600080fd5b50565b60008135905062001bf58162001bca565b92915050565b60006020828403121562001c145762001c1362001b8c565b5b600062001c248482850162001be4565b91505092915050565b62001c388162001bb6565b82525050565b600081519050919050565b600082825260208201905092915050565b60005b8381101562001c7a57808201518184015260208101905062001c5d565b60008484015250505050565b6000601f19601f8301169050919050565b600062001ca48262001c3e565b62001cb0818562001c49565b935062001cc281856020860162001c5a565b62001ccd8162001c86565b840191505092915050565b600060408201905062001cef600083018562001c2d565b818103602083015262001d03818462001c97565b90509392505050565b600060208201905062001d23600083018462001c2d565b92915050565b60008115159050919050565b62001d408162001d29565b82525050565b600060208201905062001d5d600083018462001d35565b92915050565b6000819050919050565b62001d788162001d63565b82525050565b600060608201905062001d95600083018662001d6d565b62001da4602083018562001d6d565b818103604083015262001db8818462001c97565b9050949350505050565b600080fd5b600080fd5b7f4e487b7100000000000000000000000000000000000000000000000000000000600052604160045260246000fd5b62001e068262001c86565b810181811067ffffffffffffffff8211171562001e285762001e2762001dcc565b5b80604052505050565b600062001e3d62001b82565b905062001e4b828262001dfb565b919050565b600067ffffffffffffffff82111562001e6e5762001e6d62001dcc565b5b62001e798262001c86565b9050602081019050919050565b82818337600083830152505050565b600062001eac62001ea68462001e50565b62001e31565b90508281526020810184848401111562001ecb5762001eca62001dc7565b5b62001ed884828562001e86565b509392505050565b600082601f83011262001ef85762001ef762001dc2565b5b813562001f0a84826020860162001e95565b91505092915050565b62001f1e8162001d63565b811462001f2a57600080fd5b50565b60008135905062001f3e8162001f13565b92915050565b60008060006060848603121562001f605762001f5f62001b8c565b5b600084013567ffffffffffffffff81111562001f815762001f8062001b91565b5b62001f8f8682870162001ee0565b935050602084013567ffffffffffffffff81111562001fb35762001fb262001b91565b5b62001fc18682870162001ee0565b925050604062001fd48682870162001f2d565b9150509250925092565b6000806040838503121562001ff85762001ff762001b8c565b5b6000620020088582860162001be4565b925050602083013567ffffffffffffffff8111156200202c576200202b62001b91565b5b6200203a8582860162001ee0565b9150509250929050565b6000602082019050818103600083015262002060818462001c97565b905092915050565b6000806000806080858703121562002085576200208462001b8c565b5b6000620020958782880162001be4565b9450506020620020a88782880162001f2d565b9350506040620020bb8782880162001f2d565b925050606085013567ffffffffffffffff811115620020df57620020de62001b91565b5b620020ed8782880162001ee0565b91505092959194509250565b7f546f6b656e20646f6573206e6f7420657869737420666f722074686973206f7260008201527f67616e697a6174696f6e00000000000000000000000000000000000000000000602082015250565b600062002157602a8362001c49565b91506200216482620020f9565b604082019050919050565b600060208201905081810360008301526200218a8162002148565b9050919050565b6000620021a8620021a28462001e50565b62001e31565b905082815260208101848484011115620021c757620021c662001dc7565b5b620021d484828562001c5a565b509392505050565b600082601f830112620021f457620021f362001dc2565b5b81516200220684826020860162002191565b91505092915050565b60006020828403121562002228576200222762001b8c565b5b600082015167ffffffffffffffff81111562002249576200224862001b91565b5b6200225784828501620021dc565b91505092915050565b7f4f6e6c79206f776e65722063616e2063616c6c20746869732066756e6374696f60008201527f6e00000000000000000000000000000000000000000000000000000000000000602082015250565b6000620022be60218362001c49565b9150620022cb8262002260565b604082019050919050565b60006020820190508181036000830152620022f181620022af565b9050919050565b7f43616e6e6f742072656d6f7665206f776e65722061732061646d696e00000000600082015250565b600062002330601c8362001c49565b91506200233d82620022f8565b602082019050919050565b60006020820190508181036000830152620023638162002321565b9050919050565b7f4e6f7420612072656769737465726564206f7267616e697a6174696f6e206f7260008201527f207374616b65686f6c6465720000000000000000000000000000000000000000602082015250565b6000620023c8602c8362001c49565b9150620023d5826200236a565b604082019050919050565b60006020820190508181036000830152620023fb81620023b9565b9050919050565b7f4e6f20746f6b656e7320746f20636c61696d0000000000000000000000000000600082015250565b60006200243a60128362001c49565b9150620024478262002402565b602082019050919050565b600060208201905081810360008301526200246d816200242b565b9050919050565b7f546f6b656e7320617265207374696c6c206c6f636b6564000000000000000000600082015250565b6000620024ac60178362001c49565b9150620024b98262002474565b602082019050919050565b60006020820190508181036000830152620024df816200249d565b9050919050565b7f4e6f206173736f636961746564206f7267616e697a6174696f6e20746f6b656e600082015250565b60006200251e60208362001c49565b91506200252b82620024e6565b602082019050919050565b6000602082019050818103600083015262002551816200250f565b9050919050565b60006040820190506200256f600083018562001c2d565b6200257e602083018462001d6d565b9392505050565b60006020820190506200259c600083018462001d6d565b92915050565b7f4e6f7420617574686f72697a6564000000000000000000000000000000000000600082015250565b6000620025da600e8362001c49565b9150620025e782620025a2565b602082019050919050565b600060208201905081810360008301526200260d81620025cb565b9050919050565b7f4e487b7100000000000000000000000000000000000000000000000000000000600052602260045260246000fd5b600060028204905060018216806200265c57607f821691505b60208210810362002672576200267162002614565b5b50919050565b7f4f7267616e697a6174696f6e2068617320616c7265616479206372656174656460008201527f206120746f6b656e000000000000000000000000000000000000000000000000602082015250565b6000620026d660288362001c49565b9150620026e38262002678565b604082019050919050565b600060208201905081810360008301526200270981620026c7565b9050919050565b600060608201905081810360008301526200272c818662001c97565b9050818103602083015262002742818562001c97565b905062002753604083018462001d6d565b949350505050565b600060808201905062002772600083018762001c2d565b818103602083015262002786818662001c97565b905081810360408301526200279c818562001c97565b9050620027ad606083018462001d6d565b95945050505050565b7f4e616d652063616e6e6f7420626520656d707479000000000000000000000000600082015250565b6000620027ee60148362001c49565b9150620027fb82620027b6565b602082019050919050565b600060208201905081810360008301526200282181620027df565b9050919050565b60008190508160005260206000209050919050565b60006020601f8301049050919050565b600082821b905092915050565b6000600883026200288c7fffffffffffffffffffffffffffffffffffffffffffffffffffffffffffffffff826200284d565b6200289886836200284d565b95508019841693508086168417925050509392505050565b6000819050919050565b6000620028db620028d5620028cf8462001d63565b620028b0565b62001d63565b9050919050565b6000819050919050565b620028f783620028ba565b6200290f6200290682620028e2565b8484546200285a565b825550505050565b600090565b6200292662002917565b62002933818484620028ec565b505050565b5b818110156200295b576200294f6000826200291c565b60018101905062002939565b5050565b601f821115620029aa57620029748162002828565b6200297f846200283d565b810160208510156200298f578190505b620029a76200299e856200283d565b83018262002938565b50505b505050565b600082821c905092915050565b6000620029cf60001984600802620029af565b1980831691505092915050565b6000620029ea8383620029bc565b9150826002028217905092915050565b62002a058262001c3e565b67ffffffffffffffff81111562002a215762002a2062001dcc565b5b62002a2d825462002643565b62002a3a8282856200295f565b600060209050601f83116001811462002a72576000841562002a5d578287015190505b62002a698582620029dc565b86555062002ad9565b601f19841662002a828662002828565b60005b8281101562002aac5784890151825560018201915060208501945060208101905062002a85565b8683101562002acc578489015162002ac8601f891682620029bc565b8355505b6001600288020188555050505b505050505050565b7f4e487b7100000000000000000000000000000000000000000000000000000000600052601160045260246000fd5b600062002b1d8262001d63565b915062002b2a8362001d63565b925082820390508181111562002b455762002b4462002ae1565b5b92915050565b7f4e487b7100000000000000000000000000000000000000000000000000000000600052601260045260246000fd5b600062002b878262001d63565b915062002b948362001d63565b92508262002ba75762002ba662002b4b565b5b828204905092915050565b600062002bbf8262001d63565b915062002bcc8362001d63565b925082820262002bdc8162001d63565b9150828204841483151762002bf65762002bf562002ae1565b5b5092915050565b600062002c0a8262001d63565b915062002c178362001d63565b925082820190508082111562002c325762002c3162002ae1565b5b9291505056fe60806040523480156200001157600080fd5b506040516200205238038062002052833981810160405281019062000037919062000412565b828281600390816200004a9190620006ed565b5080600490816200005c9190620006ed565b50505033600560006101000a81548173ffffffffffffffffffffffffffffffffffffffff021916908373ffffffffffffffffffffffffffffffffffffffff1602179055508260069081620000b19190620006ed565b50620000c43382620000cd60201b60201c565b505050620008ef565b600073ffffffffffffffffffffffffffffffffffffffff168273ffffffffffffffffffffffffffffffffffffffff16036200013f576040517f08c379a0000000000000000000000000000000000000000000000000000000008152600401620001369062000835565b60405180910390fd5b62000153600083836200023a60201b60201c565b806002600082825462000167919062000886565b92505081905550806000808473ffffffffffffffffffffffffffffffffffffffff1673ffffffffffffffffffffffffffffffffffffffff168152602001908152602001600020600082825401925050819055508173ffffffffffffffffffffffffffffffffffffffff16600073ffffffffffffffffffffffffffffffffffffffff167fddf252ad1be2c89b69c2b068fc378daa952ba7f163c4a11628f55a4df523b3ef836040516200021a9190620008d2565b60405180910390a362000236600083836200023f60201b60201c565b5050565b505050565b505050565b6000604051905090565b600080fd5b600080fd5b600080fd5b600080fd5b6000601f19601f8301169050919050565b7f4e487b7100000000000000000000000000000000000000000000000000000000600052604160045260246000fd5b620002ad8262000262565b810181811067ffffffffffffffff82111715620002cf57620002ce62000273565b5b80604052505050565b6000620002e462000244565b9050620002f28282620002a2565b919050565b600067ffffffffffffffff82111562000315576200031462000273565b5b620003208262000262565b9050602081019050919050565b60005b838110156200034d57808201518184015260208101905062000330565b60008484015250505050565b6000620003706200036a84620002f7565b620002d8565b9050828152602081018484840111156200038f576200038e6200025d565b5b6200039c8482856200032d565b509392505050565b600082601f830112620003bc57620003bb62000258565b5b8151620003ce84826020860162000359565b91505092915050565b6000819050919050565b620003ec81620003d7565b8114620003f857600080fd5b50565b6000815190506200040c81620003e1565b92915050565b6000806000606084860312156200042e576200042d6200024e565b5b600084015167ffffffffffffffff8111156200044f576200044e62000253565b5b6200045d86828701620003a4565b935050602084015167ffffffffffffffff81111562000481576200048062000253565b5b6200048f86828701620003a4565b9250506040620004a286828701620003fb565b9150509250925092565b600081519050919050565b7f4e487b7100000000000000000000000000000000000000000000000000000000600052602260045260246000fd5b60006002820490506001821680620004ff57607f821691505b602082108103620005155762000514620004b7565b5b50919050565b60008190508160005260206000209050919050565b60006020601f8301049050919050565b600082821b905092915050565b6000600883026200057f7fffffffffffffffffffffffffffffffffffffffffffffffffffffffffffffffff8262000540565b6200058b868362000540565b95508019841693508086168417925050509392505050565b6000819050919050565b6000620005ce620005c8620005c284620003d7565b620005a3565b620003d7565b9050919050565b6000819050919050565b620005ea83620005ad565b62000602620005f982620005d5565b8484546200054d565b825550505050565b600090565b620006196200060a565b62000626818484620005df565b505050565b5b818110156200064e57620006426000826200060f565b6001810190506200062c565b5050565b601f8211156200069d5762000667816200051b565b620006728462000530565b8101602085101562000682578190505b6200069a620006918562000530565b8301826200062b565b50505b505050565b600082821c905092915050565b6000620006c260001984600802620006a2565b1980831691505092915050565b6000620006dd8383620006af565b9150826002028217905092915050565b620006f882620004ac565b67ffffffffffffffff81111562000714576200071362000273565b5b620007208254620004e6565b6200072d82828562000652565b600060209050601f83116001811462000765576000841562000750578287015190505b6200075c8582620006cf565b865550620007cc565b601f19841662000775866200051b565b60005b828110156200079f5784890151825560018201915060208501945060208101905062000778565b86831015620007bf5784890151620007bb601f891682620006af565b8355505b6001600288020188555050505b505050505050565b600082825260208201905092915050565b7f45524332303a206d696e7420746f20746865207a65726f206164647265737300600082015250565b60006200081d601f83620007d4565b91506200082a82620007e5565b602082019050919050565b6000602082019050818103600083015262000850816200080e565b9050919050565b7f4e487b7100000000000000000000000000000000000000000000000000000000600052601160045260246000fd5b60006200089382620003d7565b9150620008a083620003d7565b9250828201905080821115620008bb57620008ba62000857565b5b92915050565b620008cc81620003d7565b82525050565b6000602082019050620008e96000830184620008c1565b92915050565b61175380620008ff6000396000f3fe608060405234801561001057600080fd5b50600436106100f55760003560e01c806370a0823111610097578063a457c2d711610066578063a457c2d71461028a578063a9059cbb146102ba578063b6d7855a146102ea578063dd62ed3e14610308576100f5565b806370a08231146102005780638da5cb5b1461023057806395d89b411461024e5780639f0c81251461026c576100f5565b806323b872dd116100d357806323b872dd14610166578063313ce5671461019657806339509351146101b457806340c10f19146101e4576100f5565b806306fdde03146100fa578063095ea7b31461011857806318160ddd14610148575b600080fd5b610102610338565b60405161010f9190610f08565b60405180910390f35b610132600480360381019061012d9190610fc3565b6103ca565b60405161013f919061101e565b60405180910390f35b6101506103ed565b60405161015d9190611048565b60405180910390f35b610180600480360381019061017b9190611063565b6103f7565b60405161018d919061101e565b60405180910390f35b61019e610426565b6040516101ab91906110d2565b60405180910390f35b6101ce60048036038101906101c99190610fc3565b61042f565b6040516101db919061101e565b60405180910390f35b6101fe60048036038101906101f99190610fc3565b610466565b005b61021a600480360381019061021591906110ed565b610504565b6040516102279190611048565b60405180910390f35b61023861054c565b6040516102459190611129565b60405180910390f35b610256610572565b6040516102639190610f08565b60405180910390f35b610274610604565b6040516102819190610f08565b60405180910390f35b6102a4600480360381019061029f9190610fc3565b610692565b6040516102b1919061101e565b60405180910390f35b6102d460048036038101906102cf9190610fc3565b610709565b6040516102e1919061101e565b60405180910390f35b6102f261072c565b6040516102ff9190610f08565b60405180910390f35b610322600480360381019061031d9190611144565b6107be565b60405161032f9190611048565b60405180910390f35b606060038054610347906111b3565b80601f0160208091040260200160405190810160405280929190818152602001828054610373906111b3565b80156103c05780601f10610395576101008083540402835291602001916103c0565b820191906000526020600020905b8154815290600101906020018083116103a357829003601f168201915b5050505050905090565b6000806103d5610845565b90506103e281858561084d565b600191505092915050565b6000600254905090565b600080610402610845565b905061040f858285610a16565b61041a858585610aa2565b60019150509392505050565b60006012905090565b60008061043a610845565b905061045b81858561044c85896107be565b6104569190611213565b61084d565b600191505092915050565b600560009054906101000a900473ffffffffffffffffffffffffffffffffffffffff1673ffffffffffffffffffffffffffffffffffffffff163373ffffffffffffffffffffffffffffffffffffffff16146104f6576040517f08c379a00000000000000000000000000000000000000000000000000000000081526004016104ed906112b9565b60405180910390fd5b6105008282610d18565b5050565b60008060008373ffffffffffffffffffffffffffffffffffffffff1673ffffffffffffffffffffffffffffffffffffffff168152602001908152602001600020549050919050565b600560009054906101000a900473ffffffffffffffffffffffffffffffffffffffff1681565b606060048054610581906111b3565b80601f01602080910402602001604051908101604052809291908181526020018280546105ad906111b3565b80156105fa5780601f106105cf576101008083540402835291602001916105fa565b820191906000526020600020905b8154815290600101906020018083116105dd57829003601f168201915b5050505050905090565b60068054610611906111b3565b80601f016020809104026020016040519081016040528092919081815260200182805461063d906111b3565b801561068a5780601f1061065f5761010080835404028352916020019161068a565b820191906000526020600020905b81548152906001019060200180831161066d57829003601f168201915b505050505081565b60008061069d610845565b905060006106ab82866107be565b9050838110156106f0576040517f08c379a00000000000000000000000000000000000000000000000000000000081526004016106e79061134b565b60405180910390fd5b6106fd828686840361084d565b60019250505092915050565b600080610714610845565b9050610721818585610aa2565b600191505092915050565b60606006805461073b906111b3565b80601f0160208091040260200160405190810160405280929190818152602001828054610767906111b3565b80156107b45780601f10610789576101008083540402835291602001916107b4565b820191906000526020600020905b81548152906001019060200180831161079757829003601f168201915b5050505050905090565b6000600160008473ffffffffffffffffffffffffffffffffffffffff1673ffffffffffffffffffffffffffffffffffffffff16815260200190815260200160002060008373ffffffffffffffffffffffffffffffffffffffff1673ffffffffffffffffffffffffffffffffffffffff16815260200190815260200160002054905092915050565b600033905090565b600073ffffffffffffffffffffffffffffffffffffffff168373ffffffffffffffffffffffffffffffffffffffff16036108bc576040517f08c379a00000000000000000000000000000000000000000000000000000000081526004016108b3906113dd565b60405180910390fd5b600073ffffffffffffffffffffffffffffffffffffffff168273ffffffffffffffffffffffffffffffffffffffff160361092b576040517f08c379a00000000000000000000000000000000000000000000000000000000081526004016109229061146f565b60405180910390fd5b80600160008573ffffffffffffffffffffffffffffffffffffffff1673ffffffffffffffffffffffffffffffffffffffff16815260200190815260200160002060008473ffffffffffffffffffffffffffffffffffffffff1673ffffffffffffffffffffffffffffffffffffffff168152602001908152602001600020819055508173ffffffffffffffffffffffffffffffffffffffff168373ffffffffffffffffffffffffffffffffffffffff167f8c5be1e5ebec7d5bd14f71427d1e84f3dd0314c0f7b2291e5b200ac8c7c3b92583604051610a099190611048565b60405180910390a3505050565b6000610a2284846107be565b90507fffffffffffffffffffffffffffffffffffffffffffffffffffffffffffffffff8114610a9c5781811015610a8e576040517f08c379a0000000000000000000000000000000000000000000000000000000008152600401610a85906114db565b60405180910390fd5b610a9b848484840361084d565b5b50505050565b600073ffffffffffffffffffffffffffffffffffffffff168373ffffffffffffffffffffffffffffffffffffffff1603610b11576040517f08c379a0000000000000000000000000000000000000000000000000000000008152600401610b089061156d565b60405180910390fd5b600073ffffffffffffffffffffffffffffffffffffffff168273ffffffffffffffffffffffffffffffffffffffff1603610b80576040517f08c379a0000000000000000000000000000000000000000000000000000000008152600401610b77906115ff565b60405180910390fd5b610b8b838383610e6e565b60008060008573ffffffffffffffffffffffffffffffffffffffff1673ffffffffffffffffffffffffffffffffffffffff16815260200190815260200160002054905081811015610c11576040517f08c379a0000000000000000000000000000000000000000000000000000000008152600401610c0890611691565b60405180910390fd5b8181036000808673ffffffffffffffffffffffffffffffffffffffff1673ffffffffffffffffffffffffffffffffffffffff16815260200190815260200160002081905550816000808573ffffffffffffffffffffffffffffffffffffffff1673ffffffffffffffffffffffffffffffffffffffff168152602001908152602001600020600082825401925050819055508273ffffffffffffffffffffffffffffffffffffffff168473ffffffffffffffffffffffffffffffffffffffff167fddf252ad1be2c89b69c2b068fc378daa952ba7f163c4a11628f55a4df523b3ef84604051610cff9190611048565b60405180910390a3610d12848484610e73565b50505050565b600073ffffffffffffffffffffffffffffffffffffffff168273ffffffffffffffffffffffffffffffffffffffff1603610d87576040517f08c379a0000000000000000000000000000000000000000000000000000000008152600401610d7e906116fd565b60405180910390fd5b610d9360008383610e6e565b8060026000828254610da59190611213565b92505081905550806000808473ffffffffffffffffffffffffffffffffffffffff1673ffffffffffffffffffffffffffffffffffffffff168152602001908152602001600020600082825401925050819055508173ffffffffffffffffffffffffffffffffffffffff16600073ffffffffffffffffffffffffffffffffffffffff167fddf252ad1be2c89b69c2b068fc378daa952ba7f163c4a11628f55a4df523b3ef83604051610e569190611048565b60405180910390a3610e6a60008383610e73565b5050565b505050565b505050565b600081519050919050565b600082825260208201905092915050565b60005b83811015610eb2578082015181840152602081019050610e97565b60008484015250505050565b6000601f19601f8301169050919050565b6000610eda82610e78565b610ee48185610e83565b9350610ef4818560208601610e94565b610efd81610ebe565b840191505092915050565b60006020820190508181036000830152610f228184610ecf565b905092915050565b600080fd5b600073ffffffffffffffffffffffffffffffffffffffff82169050919050565b6000610f5a82610f2f565b9050919050565b610f6a81610f4f565b8114610f7557600080fd5b50565b600081359050610f8781610f61565b92915050565b6000819050919050565b610fa081610f8d565b8114610fab57600080fd5b50565b600081359050610fbd81610f97565b92915050565b60008060408385031215610fda57610fd9610f2a565b5b6000610fe885828601610f78565b9250506020610ff985828601610fae565b9150509250929050565b60008115159050919050565b61101881611003565b82525050565b6000602082019050611033600083018461100f565b92915050565b61104281610f8d565b82525050565b600060208201905061105d6000830184611039565b92915050565b60008060006060848603121561107c5761107b610f2a565b5b600061108a86828701610f78565b935050602061109b86828701610f78565b92505060406110ac86828701610fae565b9150509250925092565b600060ff82169050919050565b6110cc816110b6565b82525050565b60006020820190506110e760008301846110c3565b92915050565b60006020828403121561110357611102610f2a565b5b600061111184828501610f78565b91505092915050565b61112381610f4f565b82525050565b600060208201905061113e600083018461111a565b92915050565b6000806040838503121561115b5761115a610f2a565b5b600061116985828601610f78565b925050602061117a85828601610f78565b9150509250929050565b7f4e487b7100000000000000000000000000000000000000000000000000000000600052602260045260246000fd5b600060028204905060018216806111cb57607f821691505b6020821081036111de576111dd611184565b5b50919050565b7f4e487b7100000000000000000000000000000000000000000000000000000000600052601160045260246000fd5b600061121e82610f8d565b915061122983610f8d565b9250828201905080821115611241576112406111e4565b5b92915050565b7f4f7267616e697a6174696f6e546f6b656e3a2063616c6c6572206973206e6f7460008201527f20746865206f776e657200000000000000000000000000000000000000000000602082015250565b60006112a3602a83610e83565b91506112ae82611247565b604082019050919050565b600060208201905081810360008301526112d281611296565b9050919050565b7f45524332303a2064656372656173656420616c6c6f77616e63652062656c6f7760008201527f207a65726f000000000000000000000000000000000000000000000000000000602082015250565b6000611335602583610e83565b9150611340826112d9565b604082019050919050565b6000602082019050818103600083015261136481611328565b9050919050565b7f45524332303a20617070726f76652066726f6d20746865207a65726f2061646460008201527f7265737300000000000000000000000000000000000000000000000000000000602082015250565b60006113c7602483610e83565b91506113d28261136b565b604082019050919050565b600060208201905081810360008301526113f6816113ba565b9050919050565b7f45524332303a20617070726f766520746f20746865207a65726f20616464726560008201527f7373000000000000000000000000000000000000000000000000000000000000602082015250565b6000611459602283610e83565b9150611464826113fd565b604082019050919050565b600060208201905081810360008301526114888161144c565b9050919050565b7f45524332303a20696e73756666696369656e7420616c6c6f77616e6365000000600082015250565b60006114c5601d83610e83565b91506114d08261148f565b602082019050919050565b600060208201905081810360008301526114f4816114b8565b9050919050565b7f45524332303a207472616e736665722066726f6d20746865207a65726f20616460008201527f6472657373000000000000000000000000000000000000000000000000000000602082015250565b6000611557602583610e83565b9150611562826114fb565b604082019050919050565b600060208201905081810360008301526115868161154a565b9050919050565b7f45524332303a207472616e7366657220746f20746865207a65726f206164647260008201527f6573730000000000000000000000000000000000000000000000000000000000602082015250565b60006115e9602383610e83565b91506115f48261158d565b604082019050919050565b60006020820190508181036000830152611618816115dc565b9050919050565b7f45524332303a207472616e7366657220616d6f756e742065786365656473206260008201527f616c616e63650000000000000000000000000000000000000000000000000000602082015250565b600061167b602683610e83565b91506116868261161f565b604082019050919050565b600060208201905081810360008301526116aa8161166e565b9050919050565b7f45524332303a206d696e7420746f20746865207a65726f206164647265737300600082015250565b60006116e7601f83610e83565b91506116f2826116b1565b602082019050919050565b60006020820190508181036000830152611716816116da565b905091905056fea2646970667358221220f16a60e2ac0a9706f80188489c9b82c36eb277076dfe476c1eb410e558231cb764736f6c63430008130033a264697066735822122045c4ab09ee9c7b50b7dda8520cb40b0e2e72d13ff3c2361a94ff6bc389c14a7364736f6c63430008130033",
  "linkReferences": {},
  "deployedLinkReferences": {}
}