{
  "_format": "hh-sol-artifact-1",
  "contractName": "OrganizationToken",
  "sourceName": "contracts/OrganisationToken.sol",
  "abi": [
    {
      "inputs": [
        {
          "internalType": "string",
          "name": "name",
          "type": "string"
        },
        {
          "internalType": "string",
          "name": "symbol",
          "type": "string"
        },
        {
          "internalType": "uint256",
          "name": "initialSupply",
          "type": "uint256"
        }
      ],
      "stateMutability": "nonpayable",
      "type": "constructor"
    },
    {
      "anonymous": false,
      "inputs": [
        {
          "indexed": true,
          "internalType": "address",
          "name": "owner",
          "type": "address"
        },
        {
          "indexed": true,
          "internalType": "address",
          "name": "spender",
          "type": "address"
        },
        {
          "indexed": false,
          "internalType": "uint256",
          "name": "value",
          "type": "uint256"
        }
      ],
      "name": "Approval",
      "type": "event"
    },
    {
      "anonymous": false,
      "inputs": [
        {
          "indexed": true,
          "internalType": "address",
          "name": "from",
          "type": "address"
        },
        {
          "indexed": true,
          "internalType": "address",
          "name": "to",
          "type": "address"
        },
        {
          "indexed": false,
          "internalType": "uint256",
          "name": "value",
          "type": "uint256"
        }
      ],
      "name": "Transfer",
      "type": "event"
    },
    {
      "inputs": [],
      "name": "TokenName",
      "outputs": [
        {
          "internalType": "string",
          "name": "",
          "type": "string"
        }
      ],
      "stateMutability": "view",
      "type": "function"
    },
    {
      "inputs": [],
      "name": "_tokenName",
      "outputs": [
        {
          "internalType": "string",
          "name": "",
          "type": "string"
        }
      ],
      "stateMutability": "view",
      "type": "function"
    },
    {
      "inputs": [
        {
          "internalType": "address",
          "name": "owner",
          "type": "address"
        },
        {
          "internalType": "address",
          "name": "spender",
          "type": "address"
        }
      ],
      "name": "allowance",
      "outputs": [
        {
          "internalType": "uint256",
          "name": "",
          "type": "uint256"
        }
      ],
      "stateMutability": "view",
      "type": "function"
    },
    {
      "inputs": [
        {
          "internalType": "address",
          "name": "spender",
          "type": "address"
        },
        {
          "internalType": "uint256",
          "name": "amount",
          "type": "uint256"
        }
      ],
      "name": "approve",
      "outputs": [
        {
          "internalType": "bool",
          "name": "",
          "type": "bool"
        }
      ],
      "stateMutability": "nonpayable",
      "type": "function"
    },
    {
      "inputs": [
        {
          "internalType": "address",
          "name": "account",
          "type": "address"
        }
      ],
      "name": "balanceOf",
      "outputs": [
        {
          "internalType": "uint256",
          "name": "",
          "type": "uint256"
        }
      ],
      "stateMutability": "view",
      "type": "function"
    },
    {
      "inputs": [],
      "name": "decimals",
      "outputs": [
        {
          "internalType": "uint8",
          "name": "",
          "type": "uint8"
        }
      ],
      "stateMutability": "view",
      "type": "function"
    },
    {
      "inputs": [
        {
          "internalType": "address",
          "name": "spender",
          "type": "address"
        },
        {
          "internalType": "uint256",
          "name": "subtractedValue",
          "type": "uint256"
        }
      ],
      "name": "decreaseAllowance",
      "outputs": [
        {
          "internalType": "bool",
          "name": "",
          "type": "bool"
        }
      ],
      "stateMutability": "nonpayable",
      "type": "function"
    },
    {
      "inputs": [
        {
          "internalType": "address",
          "name": "spender",
          "type": "address"
        },
        {
          "internalType": "uint256",
          "name": "addedValue",
          "type": "uint256"
        }
      ],
      "name": "increaseAllowance",
      "outputs": [
        {
          "internalType": "bool",
          "name": "",
          "type": "bool"
        }
      ],
      "stateMutability": "nonpayable",
      "type": "function"
    },
    {
      "inputs": [
        {
          "internalType": "address",
          "name": "to",
          "type": "address"
        },
        {
          "internalType": "uint256",
          "name": "amount",
          "type": "uint256"
        }
      ],
      "name": "mint",
      "outputs": [],
      "stateMutability": "nonpayable",
      "type": "function"
    },
    {
      "inputs": [],
      "name": "name",
      "outputs": [
        {
          "internalType": "string",
          "name": "",
          "type": "string"
        }
      ],
      "stateMutability": "view",
      "type": "function"
    },
    {
      "inputs": [],
      "name": "owner",
      "outputs": [
        {
          "internalType": "address",
          "name": "",
          "type": "address"
        }
      ],
      "stateMutability": "view",
      "type": "function"
    },
    {
      "inputs": [],
      "name": "symbol",
      "outputs": [
        {
          "internalType": "string",
          "name": "",
          "type": "string"
        }
      ],
      "stateMutability": "view",
      "type": "function"
    },
    {
      "inputs": [],
      "name": "totalSupply",
      "outputs": [
        {
          "internalType": "uint256",
          "name": "",
          "type": "uint256"
        }
      ],
      "stateMutability": "view",
      "type": "function"
    },
    {
      "inputs": [
        {
          "internalType": "address",
          "name": "to",
          "type": "address"
        },
        {
          "internalType": "uint256",
          "name": "amount",
          "type": "uint256"
        }
      ],
      "name": "transfer",
      "outputs": [
        {
          "internalType": "bool",
          "name": "",
          "type": "bool"
        }
      ],
      "stateMutability": "nonpayable",
      "type": "function"
    },
    {
      "inputs": [
        {
          "internalType": "address",
          "name": "from",
          "type": "address"
        },
        {
          "internalType": "address",
          "name": "to",
          "type": "address"
        },
        {
          "internalType": "uint256",
          "name": "amount",
          "type": "uint256"
        }
      ],
      "name": "transferFrom",
      "outputs": [
        {
          "internalType": "bool",
          "name": "",
          "type": "bool"
        }
      ],
      "stateMutability": "nonpayable",
      "type": "function"
    }
  ],
  "bytecode": "0x60806040523480156200001157600080fd5b506040516200205238038062002052833981810160405281019062000037919062000412565b828281600390816200004a9190620006ed565b5080600490816200005c9190620006ed565b50505033600560006101000a81548173ffffffffffffffffffffffffffffffffffffffff021916908373ffffffffffffffffffffffffffffffffffffffff1602179055508260069081620000b19190620006ed565b50620000c43382620000cd60201b60201c565b505050620008ef565b600073ffffffffffffffffffffffffffffffffffffffff168273ffffffffffffffffffffffffffffffffffffffff16036200013f576040517f08c379a0000000000000000000000000000000000000000000000000000000008152600401620001369062000835565b60405180910390fd5b62000153600083836200023a60201b60201c565b806002600082825462000167919062000886565b92505081905550806000808473ffffffffffffffffffffffffffffffffffffffff1673ffffffffffffffffffffffffffffffffffffffff168152602001908152602001600020600082825401925050819055508173ffffffffffffffffffffffffffffffffffffffff16600073ffffffffffffffffffffffffffffffffffffffff167fddf252ad1be2c89b69c2b068fc378daa952ba7f163c4a11628f55a4df523b3ef836040516200021a9190620008d2565b60405180910390a362000236600083836200023f60201b60201c565b5050565b505050565b505050565b6000604051905090565b600080fd5b600080fd5b600080fd5b600080fd5b6000601f19601f8301169050919050565b7f4e487b7100000000000000000000000000000000000000000000000000000000600052604160045260246000fd5b620002ad8262000262565b810181811067ffffffffffffffff82111715620002cf57620002ce62000273565b5b80604052505050565b6000620002e462000244565b9050620002f28282620002a2565b919050565b600067ffffffffffffffff82111562000315576200031462000273565b5b620003208262000262565b9050602081019050919050565b60005b838110156200034d57808201518184015260208101905062000330565b60008484015250505050565b6000620003706200036a84620002f7565b620002d8565b9050828152602081018484840111156200038f576200038e6200025d565b5b6200039c8482856200032d565b509392505050565b600082601f830112620003bc57620003bb62000258565b5b8151620003ce84826020860162000359565b91505092915050565b6000819050919050565b620003ec81620003d7565b8114620003f857600080fd5b50565b6000815190506200040c81620003e1565b92915050565b6000806000606084860312156200042e576200042d6200024e565b5b600084015167ffffffffffffffff8111156200044f576200044e62000253565b5b6200045d86828701620003a4565b935050602084015167ffffffffffffffff81111562000481576200048062000253565b5b6200048f86828701620003a4565b9250506040620004a286828701620003fb565b9150509250925092565b600081519050919050565b7f4e487b7100000000000000000000000000000000000000000000000000000000600052602260045260246000fd5b60006002820490506001821680620004ff57607f821691505b602082108103620005155762000514620004b7565b5b50919050565b60008190508160005260206000209050919050565b60006020601f8301049050919050565b600082821b905092915050565b6000600883026200057f7fffffffffffffffffffffffffffffffffffffffffffffffffffffffffffffffff8262000540565b6200058b868362000540565b95508019841693508086168417925050509392505050565b6000819050919050565b6000620005ce620005c8620005c284620003d7565b620005a3565b620003d7565b9050919050565b6000819050919050565b620005ea83620005ad565b62000602620005f982620005d5565b8484546200054d565b825550505050565b600090565b620006196200060a565b62000626818484620005df565b505050565b5b818110156200064e57620006426000826200060f565b6001810190506200062c565b5050565b601f8211156200069d5762000667816200051b565b620006728462000530565b8101602085101562000682578190505b6200069a620006918562000530565b8301826200062b565b50505b505050565b600082821c905092915050565b6000620006c260001984600802620006a2565b1980831691505092915050565b6000620006dd8383620006af565b9150826002028217905092915050565b620006f882620004ac565b67ffffffffffffffff81111562000714576200071362000273565b5b620007208254620004e6565b6200072d82828562000652565b600060209050601f83116001811462000765576000841562000750578287015190505b6200075c8582620006cf565b865550620007cc565b601f19841662000775866200051b565b60005b828110156200079f5784890151825560018201915060208501945060208101905062000778565b86831015620007bf5784890151620007bb601f891682620006af565b8355505b6001600288020188555050505b505050505050565b600082825260208201905092915050565b7f45524332303a206d696e7420746f20746865207a65726f206164647265737300600082015250565b60006200081d601f83620007d4565b91506200082a82620007e5565b602082019050919050565b6000602082019050818103600083015262000850816200080e565b9050919050565b7f4e487b7100000000000000000000000000000000000000000000000000000000600052601160045260246000fd5b60006200089382620003d7565b9150620008a083620003d7565b9250828201905080821115620008bb57620008ba62000857565b5b92915050565b620008cc81620003d7565b82525050565b6000602082019050620008e96000830184620008c1565b92915050565b61175380620008ff6000396000f3fe608060405234801561001057600080fd5b50600436106100f55760003560e01c806370a0823111610097578063a457c2d711610066578063a457c2d71461028a578063a9059cbb146102ba578063b6d7855a146102ea578063dd62ed3e14610308576100f5565b806370a08231146102005780638da5cb5b1461023057806395d89b411461024e5780639f0c81251461026c576100f5565b806323b872dd116100d357806323b872dd14610166578063313ce5671461019657806339509351146101b457806340c10f19146101e4576100f5565b806306fdde03146100fa578063095ea7b31461011857806318160ddd14610148575b600080fd5b610102610338565b60405161010f9190610f08565b60405180910390f35b610132600480360381019061012d9190610fc3565b6103ca565b60405161013f919061101e565b60405180910390f35b6101506103ed565b60405161015d9190611048565b60405180910390f35b610180600480360381019061017b9190611063565b6103f7565b60405161018d919061101e565b60405180910390f35b61019e610426565b6040516101ab91906110d2565b60405180910390f35b6101ce60048036038101906101c99190610fc3565b61042f565b6040516101db919061101e565b60405180910390f35b6101fe60048036038101906101f99190610fc3565b610466565b005b61021a600480360381019061021591906110ed565b610504565b6040516102279190611048565b60405180910390f35b61023861054c565b6040516102459190611129565b60405180910390f35b610256610572565b6040516102639190610f08565b60405180910390f35b610274610604565b6040516102819190610f08565b60405180910390f35b6102a4600480360381019061029f9190610fc3565b610692565b6040516102b1919061101e565b60405180910390f35b6102d460048036038101906102cf9190610fc3565b610709565b6040516102e1919061101e565b60405180910390f35b6102f261072c565b6040516102ff9190610f08565b60405180910390f35b610322600480360381019061031d9190611144565b6107be565b60405161032f9190611048565b60405180910390f35b606060038054610347906111b3565b80601f0160208091040260200160405190810160405280929190818152602001828054610373906111b3565b80156103c05780601f10610395576101008083540402835291602001916103c0565b820191906000526020600020905b8154815290600101906020018083116103a357829003601f168201915b5050505050905090565b6000806103d5610845565b90506103e281858561084d565b600191505092915050565b6000600254905090565b600080610402610845565b905061040f858285610a16565b61041a858585610aa2565b60019150509392505050565b60006012905090565b60008061043a610845565b905061045b81858561044c85896107be565b6104569190611213565b61084d565b600191505092915050565b600560009054906101000a900473ffffffffffffffffffffffffffffffffffffffff1673ffffffffffffffffffffffffffffffffffffffff163373ffffffffffffffffffffffffffffffffffffffff16146104f6576040517f08c379a00000000000000000000000000000000000000000000000000000000081526004016104ed906112b9565b60405180910390fd5b6105008282610d18565b5050565b60008060008373ffffffffffffffffffffffffffffffffffffffff1673ffffffffffffffffffffffffffffffffffffffff168152602001908152602001600020549050919050565b600560009054906101000a900473ffffffffffffffffffffffffffffffffffffffff1681565b606060048054610581906111b3565b80601f01602080910402602001604051908101604052809291908181526020018280546105ad906111b3565b80156105fa5780601f106105cf576101008083540402835291602001916105fa565b820191906000526020600020905b8154815290600101906020018083116105dd57829003601f168201915b5050505050905090565b60068054610611906111b3565b80601f016020809104026020016040519081016040528092919081815260200182805461063d906111b3565b801561068a5780601f1061065f5761010080835404028352916020019161068a565b820191906000526020600020905b81548152906001019060200180831161066d57829003601f168201915b505050505081565b60008061069d610845565b905060006106ab82866107be565b9050838110156106f0576040517f08c379a00000000000000000000000000000000000000000000000000000000081526004016106e79061134b565b60405180910390fd5b6106fd828686840361084d565b60019250505092915050565b600080610714610845565b9050610721818585610aa2565b600191505092915050565b60606006805461073b906111b3565b80601f0160208091040260200160405190810160405280929190818152602001828054610767906111b3565b80156107b45780601f10610789576101008083540402835291602001916107b4565b820191906000526020600020905b81548152906001019060200180831161079757829003601f168201915b5050505050905090565b6000600160008473ffffffffffffffffffffffffffffffffffffffff1673ffffffffffffffffffffffffffffffffffffffff16815260200190815260200160002060008373ffffffffffffffffffffffffffffffffffffffff1673ffffffffffffffffffffffffffffffffffffffff16815260200190815260200160002054905092915050565b600033905090565b600073ffffffffffffffffffffffffffffffffffffffff168373ffffffffffffffffffffffffffffffffffffffff16036108bc576040517f08c379a00000000000000000000000000000000000000000000000000000000081526004016108b3906113dd565b60405180910390fd5b600073ffffffffffffffffffffffffffffffffffffffff168273ffffffffffffffffffffffffffffffffffffffff160361092b576040517f08c379a00000000000000000000000000000000000000000000000000000000081526004016109229061146f565b60405180910390fd5b80600160008573ffffffffffffffffffffffffffffffffffffffff1673ffffffffffffffffffffffffffffffffffffffff16815260200190815260200160002060008473ffffffffffffffffffffffffffffffffffffffff1673ffffffffffffffffffffffffffffffffffffffff168152602001908152602001600020819055508173ffffffffffffffffffffffffffffffffffffffff168373ffffffffffffffffffffffffffffffffffffffff167f8c5be1e5ebec7d5bd14f71427d1e84f3dd0314c0f7b2291e5b200ac8c7c3b92583604051610a099190611048565b60405180910390a3505050565b6000610a2284846107be565b90507fffffffffffffffffffffffffffffffffffffffffffffffffffffffffffffffff8114610a9c5781811015610a8e576040517f08c379a0000000000000000000000000000000000000000000000000000000008152600401610a85906114db565b60405180910390fd5b610a9b848484840361084d565b5b50505050565b600073ffffffffffffffffffffffffffffffffffffffff168373ffffffffffffffffffffffffffffffffffffffff1603610b11576040517f08c379a0000000000000000000000000000000000000000000000000000000008152600401610b089061156d565b60405180910390fd5b600073ffffffffffffffffffffffffffffffffffffffff168273ffffffffffffffffffffffffffffffffffffffff1603610b80576040517f08c379a0000000000000000000000000000000000000000000000000000000008152600401610b77906115ff565b60405180910390fd5b610b8b838383610e6e565b60008060008573ffffffffffffffffffffffffffffffffffffffff1673ffffffffffffffffffffffffffffffffffffffff16815260200190815260200160002054905081811015610c11576040517f08c379a0000000000000000000000000000000000000000000000000000000008152600401610c0890611691565b60405180910390fd5b8181036000808673ffffffffffffffffffffffffffffffffffffffff1673ffffffffffffffffffffffffffffffffffffffff16815260200190815260200160002081905550816000808573ffffffffffffffffffffffffffffffffffffffff1673ffffffffffffffffffffffffffffffffffffffff168152602001908152602001600020600082825401925050819055508273ffffffffffffffffffffffffffffffffffffffff168473ffffffffffffffffffffffffffffffffffffffff167fddf252ad1be2c89b69c2b068fc378daa952ba7f163c4a11628f55a4df523b3ef84604051610cff9190611048565b60405180910390a3610d12848484610e73565b50505050565b600073ffffffffffffffffffffffffffffffffffffffff168273ffffffffffffffffffffffffffffffffffffffff1603610d87576040517f08c379a0000000000000000000000000000000000000000000000000000000008152600401610d7e906116fd565b60405180910390fd5b610d9360008383610e6e565b8060026000828254610da59190611213565b92505081905550806000808473ffffffffffffffffffffffffffffffffffffffff1673ffffffffffffffffffffffffffffffffffffffff168152602001908152602001600020600082825401925050819055508173ffffffffffffffffffffffffffffffffffffffff16600073ffffffffffffffffffffffffffffffffffffffff167fddf252ad1be2c89b69c2b068fc378daa952ba7f163c4a11628f55a4df523b3ef83604051610e569190611048565b60405180910390a3610e6a60008383610e73565b5050565b505050565b505050565b600081519050919050565b600082825260208201905092915050565b60005b83811015610eb2578082015181840152602081019050610e97565b60008484015250505050565b6000601f19601f8301169050919050565b6000610eda82610e78565b610ee48185610e83565b9350610ef4818560208601610e94565b610efd81610ebe565b840191505092915050565b60006020820190508181036000830152610f228184610ecf565b905092915050565b600080fd5b600073ffffffffffffffffffffffffffffffffffffffff82169050919050565b6000610f5a82610f2f565b9050919050565b610f6a81610f4f565b8114610f7557600080fd5b50565b600081359050610f8781610f61565b92915050565b6000819050919050565b610fa081610f8d565b8114610fab57600080fd5b50565b600081359050610fbd81610f97565b92915050565b60008060408385031215610fda57610fd9610f2a565b5b6000610fe885828601610f78565b9250506020610ff985828601610fae565b9150509250929050565b60008115159050919050565b61101881611003565b82525050565b6000602082019050611033600083018461100f565b92915050565b61104281610f8d565b82525050565b600060208201905061105d6000830184611039565b92915050565b60008060006060848603121561107c5761107b610f2a565b5b600061108a86828701610f78565b935050602061109b86828701610f78565b92505060406110ac86828701610fae565b9150509250925092565b600060ff82169050919050565b6110cc816110b6565b82525050565b60006020820190506110e760008301846110c3565b92915050565b60006020828403121561110357611102610f2a565b5b600061111184828501610f78565b91505092915050565b61112381610f4f565b82525050565b600060208201905061113e600083018461111a565b92915050565b6000806040838503121561115b5761115a610f2a565b5b600061116985828601610f78565b925050602061117a85828601610f78565b9150509250929050565b7f4e487b7100000000000000000000000000000000000000000000000000000000600052602260045260246000fd5b600060028204905060018216806111cb57607f821691505b6020821081036111de576111dd611184565b5b50919050565b7f4e487b7100000000000000000000000000000000000000000000000000000000600052601160045260246000fd5b600061121e82610f8d565b915061122983610f8d565b9250828201905080821115611241576112406111e4565b5b92915050565b7f4f7267616e697a6174696f6e546f6b656e3a2063616c6c6572206973206e6f7460008201527f20746865206f776e657200000000000000000000000000000000000000000000602082015250565b60006112a3602a83610e83565b91506112ae82611247565b604082019050919050565b600060208201905081810360008301526112d281611296565b9050919050565b7f45524332303a2064656372656173656420616c6c6f77616e63652062656c6f7760008201527f207a65726f000000000000000000000000000000000000000000000000000000602082015250565b6000611335602583610e83565b9150611340826112d9565b604082019050919050565b6000602082019050818103600083015261136481611328565b9050919050565b7f45524332303a20617070726f76652066726f6d20746865207a65726f2061646460008201527f7265737300000000000000000000000000000000000000000000000000000000602082015250565b60006113c7602483610e83565b91506113d28261136b565b604082019050919050565b600060208201905081810360008301526113f6816113ba565b9050919050565b7f45524332303a20617070726f766520746f20746865207a65726f20616464726560008201527f7373000000000000000000000000000000000000000000000000000000000000602082015250565b6000611459602283610e83565b9150611464826113fd565b604082019050919050565b600060208201905081810360008301526114888161144c565b9050919050565b7f45524332303a20696e73756666696369656e7420616c6c6f77616e6365000000600082015250565b60006114c5601d83610e83565b91506114d08261148f565b602082019050919050565b600060208201905081810360008301526114f4816114b8565b9050919050565b7f45524332303a207472616e736665722066726f6d20746865207a65726f20616460008201527f6472657373000000000000000000000000000000000000000000000000000000602082015250565b6000611557602583610e83565b9150611562826114fb565b604082019050919050565b600060208201905081810360008301526115868161154a565b9050919050565b7f45524332303a207472616e7366657220746f20746865207a65726f206164647260008201527f6573730000000000000000000000000000000000000000000000000000000000602082015250565b60006115e9602383610e83565b91506115f48261158d565b604082019050919050565b60006020820190508181036000830152611618816115dc565b9050919050565b7f45524332303a207472616e7366657220616d6f756e742065786365656473206260008201527f616c616e63650000000000000000000000000000000000000000000000000000602082015250565b600061167b602683610e83565b91506116868261161f565b604082019050919050565b600060208201905081810360008301526116aa8161166e565b9050919050565b7f45524332303a206d696e7420746f20746865207a65726f206164647265737300600082015250565b60006116e7601f83610e83565b91506116f2826116b1565b602082019050919050565b60006020820190508181036000830152611716816116da565b905091905056fea2646970667358221220f16a60e2ac0a9706f80188489c9b82c36eb277076dfe476c1eb410e558231cb764736f6c63430008130033",
  "linkReferences": {},
  "deployedLinkReferences": {}
}